:020000040800F2
:10000000703500209D010008DB35000855280008E8
:10001000D935000835130008993A0008000000009F
:1000200000000000000000000000000005010008C2
:100030008313000800000000490100084137000850
:10004000B7010008B7010008B7010008B7010008B0
:10005000B7010008B7010008B7010008B7010008A0
:10006000B7010008B7010008B7010008B701000890
:10007000B7010008B7010008B7010008B701000880
:10008000B7010008B7010008B7010008B701000870
:10009000B7010008B7010008B7010008B701000860
:1000A000B7010008B7010008B7010008B701000850
:1000B000B7010008B7010008B7010008B701000840
:1000C000B7010008B7010008B7010008B701000830
:1000D000B7010008B70100088D3A0008B701000811
:1000E000B7010008B7010008B7010008DFF810D019
:1000F00000F082FE0048004725500008AFF3008062
:1001000070350020224B19680868B0E8F00F80F3C2
:100110000988BFF36F8F4FF0000080F311884EF015
:100120000D0E70470000000006480068006880F36C
:10013000088862B661B6BFF34F8FBFF36F8F00DFE1
:1001400000BF00BF08ED00E0EFF30980BFF36F8F41
:100150000F4B1A6820E9F00F106008B54FF0BF0090
:1001600080F31188BFF34F8FBFF36F8F06F07EFBD4
:100170004FF0000080F31188BDE808401968086856
:10018000B0E8F00F80F30988BFF36F8F704700BFAE
:1001900044000020EFF305807047000006488047C8
:1001A00006480047FEE7FEE7FEE7FEE7FEE7FEE75C
:1001B000FEE7FEE7FEE7FEE7B7370008ED000008C0
:1001C000202A04DB203A21FA02F00021704721FAAC
:1001D00002F3D040C2F12002914008431946704713
:1001E000A0F14101192900D82030704740EA0103ED
:1001F0009B0703D009E008C9121F08C0042AFAD2DD
:1002000003E011F8013B00F8013B521EF9D27047A0
:10021000D2B201E000F8012B491EFBD27047002248
:10022000F6E710B513460A4604461946FFF7F0FFF5
:10023000204610BD421C10F8011B0029FBD1801A7A
:10024000704710B5002200E0521C835C8C5CA34216
:1002500001D1002BF8D1D8B2E1B2401A10BD03464B
:1002600011F8012B00F8012B002AF9D1184670472C
:1002700030B505460020034600E05B1C934205D2E2
:10028000EC5CC85C201A01D1002CF6D130BD0022F4
:10029000CBB20178994200D10246401C0029F8D126
:1002A000104670470FB400B58DB010A909900B909F
:1002B00000914FF0FF300A9000200C900548069006
:1002C000054807906A4609A80F9900F07FFB0DB01A
:1002D0005DF814FBE9090008070A00082DE9FF4F43
:1002E000087883B09946FF2805D0491C2D2804D0F2
:1002F0000024002008E000200BE00124F9E700EBD7
:10030000800003EB4000491C0B78FF2BF7D104B1B0
:10031000404200230293147819461D462D2C01D02B
:100320002B2C04D1521C2D2C13D000240294AA464D
:100330001478FF2C0FD00A25A3FB057801FB05815B
:100340004FF0000C03FB0C11521CE3194AEB0101A6
:10035000EEE70124EAE7814453EA010002D019F5EF
:10036000C87F06DA03980021C0E9001107B0BDE894
:10037000F08F0025AE4E2F46DFF8B882184600F009
:1003800016FDCDE90001B9F1000002DAC9F100045F
:1003900000E004460023A74A1AEB030B42EB045A81
:1003A00012E0E00707D02A4633463846414600F0BF
:1003B0001DFC074688462A4633461046194600F07B
:1003C00015FC05460E466410002CEAD1DDE900015B
:1003D000B9F1000F5A46534606DA00F079FC3A4666
:1003E000434600F075FC05E000F000FC3A46434649
:1003F00000F0FCFB029A0AB181F00041039AC2E9C5
:100400000001B3E72DE9FF4F1F468DB0D7E9014644
:100410004FF0FF382E2045464FF000090B90B96988
:100420006D1C0E988847396A824688470028F6D1A5
:10043000BAF1FF3F0AD024F4D064002E11DDBAF1E6
:100440002B0F08D0BAF12D0F0BD102E0404611B0AE
:100450008DE744F48064B9696D1C0E988847824624
:10046000761E6946600501D52D2000E02B208DF811
:10047000000001F1010B0DF1200809E0B9696D1CC4
:100480000E98884782460F9844F40074761E0560E3
:10049000002E02DDBAF1300FF0D00B998A453ED123
:1004A00044F0800406E00F99681CA9F1010944F4A6
:1004B00000740860B9696D1C761E0E9888478246E4
:1004C0003028F0D02BE00B998A4505D1200603D4C3
:1004D00044F08004761E18E0504603F009FD08B38E
:1004E0000DF11301761E44F400748B4508D2AAF175
:1004F00030000BF8010B200607D5A9F1010003E03D
:10050000200602D409F101008146A00502D50F9909
:10051000681C0860B9696D1C0E9888478246002ED9
:10052000D1DC53E0002E51DDBAF1650F02D0BAF1F3
:10053000450F4BD1A00549D5B9696D1C24F4407411
:10054000761E0E9888478246002E0CDD2B2804D09C
:10055000BAF12D0F07D144F48074B9696D1C0E985F
:1005600088478246761EE00501D52D2100E02B212B
:1005700008F8011BCDF82C8021E00DF12901761E31
:1005800044F4007488450CD2AAF1300010F0FF004A
:1005900088F8000002D10B99884509D908F10108B3
:1005A00006E0E00501D5244801E042F20F708146E3
:1005B000B9696D1C0E98884782460F980560002E19
:1005C00004DD504603F094FC0028D6D1F9690E985A
:1005D0008847FF208BF8000088F800000020069074
:1005E00007904B466A4608A906A8FFF777FEA005C4
:1005F00002D46FF001002AE714F0240F0AD0E007BC
:1006000014D1DDE906123868031D3B600068C0E9BB
:1006100000120BE0DDE9060100F04EF90146E007AB
:1006200004D13868021D3A600068016028460EE770
:10063000000014400000F03FF1D8FFFF2DE9FE4F0D
:10064000804681EA0300C00F0C46009021F0004173
:1006500023F00045B8EB0200A94105D240462146EF
:1006600090461C460B46024623F00040104347D0FC
:10067000270DC7F30A00C3F30A510290401A0190F4
:1006800040286BDAC3F3130040F4801B00989246B5
:1006900020B10023D2EB030A63EB0B0B0198594600
:1006A000C0F14002504600F06AF906460D46504639
:1006B0005946019A00F072F910EB080061410024DC
:1006C00087EA115284EAE7731A4340D0009A62B372
:1006D000019A012A4FEA075215DC001B61EB020167
:1006E0004FF0004202EA0752CDE90042001C41F5FA
:1006F000801132462B4600F02BFA03B0BDE8F08F94
:1007000040462146F9E7001B61EB0201001C41F560
:10071000801300185B412018A2F5001747EB030176
:1007200040EAD570B6196D4111E06D084FEA360602
:1007300045EAC0754FEA0752001B61EB0201001C3D
:1007400041F5801149084FEA300000195141324605
:100750002B4603B0BDE8F04F00F0EBB90098012242
:1007600040000023D0EB020263EBE07300982146C7
:100770004FEAE074B8EB000061EB0401E9E783F0B5
:1007800000435BE781F0004158E770B521F000437A
:1007900003430CD0C1F30A550024D5EB040564EBE8
:1007A0000403D617AD1AB34102DB0020014670BD29
:1007B000201841EB025170BD0EB5C10F80EAE07008
:1007C0000844CA07002140F233438DE80E000A4670
:1007D0000B4600F0BDF903B000BD0EB540F2334149
:1007E00002910021CDE900110A460B4600F0B0F954
:1007F00003B000BD70B5C1F30A5201F000450024FA
:10080000C1F3130140F2FF3341F480119A4201DA3F
:10081000002070BD40F233439A42A2F2334203DC1F
:100820005242FFF7CDFC00E090402C43F1D0404213
:1008300070BD00F0004230F000400AD0C10D01F55B
:100840006071C0F3160042EA0151C208400711432B
:10085000704700200146704730B5041E71F1000456
:1008600004DB4FF00044404264EB0101141E73F1BD
:10087000000405DB1C464FF00043524263EB0403C7
:100880008B4208BF824230BD30B5041E71F10004B6
:1008900004DB4FF00044404264EB0101141E73F18D
:1008A000000405DB1C464FF00043524263EB040397
:1008B000994208BF904230BD01F0004330B421F0AE
:1008C000004150EA010206D00A0DA2F56072C1F3A0
:1008D0001301002A02DC30BC00207047440F44EAB8
:1008E000C104C100E01830BC00EBC25000F0EAB80F
:1008F00030B50B46014600202022012409E021FAF0
:1009000002F59D4205D303FA02F5491B04FA02F5EC
:100910002844151EA2F10102F1DC30BD2DE9F05F83
:100920000546002092469B4688460646814640245E
:100930001BE02846414647462246FFF741FC534606
:100940005A46C01A914110D311461846224600F06B
:1009500016F82D1A67EB01084F46224601200021A8
:1009600000F00DF817EB00094E41201EA4F1010420
:10097000DFDC484631462A464346BDE8F09F202A40
:1009800004DB203A00FA02F1002070479140C2F1E6
:10099000200320FA03F3194390407047202A06DB16
:1009A000CB17203A41FA02F043EAE07306E041FA3D
:1009B00002F3D040C2F1200291400843194670472B
:1009C000026811441378016018467047D1600449E9
:1009D00051610449116200211161114600F024BAED
:1009E000C10900081D0E0008426842B1016811F8F3
:1009F000013B23B1521EC0E9001218467047012185
:100A0000C160881E704742685AB1C368016843B923
:100A100083688B4205D0491E521CC0E90012002099
:100A200070474FF0FF3070470FB4002300B589B016
:100A30000CA900910B996FF00042CB601E4B0693FE
:100A40001E4B07930423CDE901321D4A089202464A
:100A50006B460020FFF7D6FC09B05DF814FB70B5BB
:100A600086B006464FF0FF300091CDE9010100202D
:100A700015460C4604903246694604A8FFF7D4FF99
:100A800002460498211825B108B1084600E0204626
:100A90002860049800280DD0002A02DD00988842C2
:100AA00008D0081B0094CDE901043246694604A829
:100AB000FFF7BAFF06B070BDE9090008070A000891
:100AC0001D0E00080029A8BF7047401C490008BF40
:100AD00020F00100704710B4B0FA80FC00FA0CF06E
:100AE00050EA010404BF10BC704749B1CCF12004A6
:100AF00021FA04F411FA0CF118BF01212143084333
:100B0000A3EB0C01CB1D4FEA00614FEA102042BF5E
:100B1000002010BC704700EBC35010440029A4BF54
:100B200010BC7047401C490008BF20F0010010BCF9
:100B3000704710B5141E73F1000408DA401C41F12F
:100B4000000192185B411A4301D120F0010010BD51
:100B50002DE9F04D92469B4611B1B1FA81F202E0C7
:100B6000B0FA80F220329046FFF709FF04460F46A4
:100B700040EA0A0041EA0B0153465A46084313D0A3
:100B8000114653EA010019D0C8F140025046FFF760
:100B900017FB05460E46504659464246FFF7EFFE04
:100BA000084305D0012004E020463946BDE8F08D19
:100BB0000020054346EAE0762C4337430A98630554
:100BC000E40AA0EB08000022FD0A44EA47540A3078
:100BD00002D500200146E9E7010510196941DDE968
:100BE000084500196941BDE8F04DA2E72DE9FE4F27
:100BF00081EA030404F0004421F0004100944FF026
:100C0000000B23F0004350EA01045ED052EA0304D3
:100C10005BD0C3F30A54C1F30A552C44A4F2F33455
:100C20000194A0FB0254C1F3130141F48011C3F3FA
:100C3000130343F4801301FB024400FB034E840AB8
:100C4000970A44EA815447EA8357A4FB0768029550
:100C50008D0A05FB07854FEA932C04FB0C542705EE
:100C6000029D4FEA065847EA1637B5EB08056EEBCA
:100C7000070C870E920E47EA811742EA8312A7FB00
:100C80000201B6EB0B0164EB00042B0D43EA0C33BD
:100C90005E1844EB1C50DA465146E7FB0201C5F3EF
:100CA00013044FEA0B3343EA14534FEA0432019C16
:100CB00043EA0603A4F10C040294009CCDE900B4BD
:100CC000FFF746FF03B0BDE8F08F00200146F9E7CB
:100CD0002DE9F04D81EA030404F0004B21F00045BA
:100CE00014464FF0000A23F0004150EA050220D0DC
:100CF00054EA01021DD0C5F30A570246C5F3130397
:100D0000C1F31300C1F30A5640F4801543F4801375
:100D1000A7EB0608101BD64608F2FD3873EB05005A
:100D200002D308F1010801E092185B41B8F1000F0D
:100D300003DA00200146BDE8F08D00204FF4801159
:100D4000064684460EE0171B73EB050705D3121BFE
:100D500063EB050306434CEA010C49084FEA3000F7
:100D600092185B4150EA0107EDD152EA030012D01C
:100D700082EA040083EA0501084305D0101BAB4159
:100D800006D20122002306E000224FF0004302E0D9
:100D90006FF0010253101AEB06004CEB085110EBF8
:100DA0000A0041EB0B01BDE8F04DFFF7C2BE0EB5E6
:100DB00040F2334202920022CDE900221346FFF7AF
:100DC000C7FE03B000BDC1F30A52C1F3130140F2E4
:100DD000FF3341F480119A4202DA00200146704745
:100DE00040F233439A42A2F2334202DC5242FFF70E
:100DF000E7B9FFF7C4BD0000064C074D06E0E06808
:100E000040F0010394E8070098471034AC42F6D351
:100E1000FFF770F994750008B4750008C0B24FF47C
:100E2000F05100F099B900002DE9F34F8BB04FF06D
:100E3000000801F10C000C464FF0010B46460DF185
:100E4000080A01906269012101989047051E2DD082
:100E5000252D2CD0216A8847C0B1626901210198F3
:100E60009047216A88470028F7D1411E626901989E
:100E7000904700E0761CA1690B988847216A884753
:100E80000028F7D1E1690B988847DBE7A1690B9847
:100E900088470746A84201D1761CD3E7E1690B9841
:100EA00088477F1C02D1B8F1000F6FD047E10027BF
:100EB00062693D463946019890472A2804D1626903
:100EC0000121019890470125DFF88892626901218C
:100ED00001989047A0F130010A290AD24F45E5DC7C
:100EE00007EB870100EB4107303FDFD445F01005E9
:100EF000ECE7E90601D46FF000476C280AD04C28D3
:100F000014D0682815D06A280DD074281CD07A28EF
:100F10001AD01DE062690121019890476C2802D027
:100F200045F0040514E045F002050DE045F020050C
:100F30000AE06269012101989047682802D045F0D3
:100F4000080505E045F400656269012101989047B4
:100F5000C4E9015765283DD019DC58287AD00CDC4B
:100F6000452837D004DC252826D0412831D131E06E
:100F700046282FD047282CD12CE05B2877D0612839
:100F800028D063287CD0642823D15AE0D1E06F2890
:100F900048D008DC66281DD067281BD0692821D0DE
:100FA0006E2816D127E0702845D0732868D07528A0
:100FB00047D078280DD14DE0A1690B9888470546A8
:100FC00025283FF469AFE1690B9888476D1C3FF411
:100FD0006AAFB4E023466A466FF001000B99FFF751
:100FE00011FA9FE045F040006060A80723464FF0EB
:100FF000000236D43EE0E8077FF447AF2068011DC9
:1010000021600068290501D506701BE7290701D575
:10101000068017E7A90703D5F117C0E9006111E7BA
:1010200006600FE745F040006060A80723464FF0D8
:10103000080216D41EE040F60E0125EA01006060A9
:1010400016E045F040006060A80723464FF00A0212
:1010500007D40FE045F040006060A80708D523469C
:1010600010226FF001000B99AFF300805AE007E007
:10107000234610226FF001000B99AFF3008051E07E
:101080004FF000094F464B46632802D05B2807D03B
:1010900041E02079C00601D40120A06001273AE098
:1010A00062690121019890475E2805D14FF001093E
:1010B0006269494601989047216939B900210A4679
:1010C000534643F82120491C0829FADBB0B32169B3
:1010D00069B9C11700EBD16253110AEB830122F009
:1010E0001F02821A01200B68904003430B60626963
:1010F0000121019890475D28E8D1B9F1000F09D08E
:101100000020514651F82020D24341F82020401CB5
:101110000828F7DB02AB224600976FF001000B991D
:10112000AFF3008000280CDA401C08D1BBF1000F9F
:1011300005D04FF0FF300DB0BDE8F08FFFE740461F
:10114000F9E7E90701D108F1010806444FF0000B67
:1011500078E60000CCCCCC0C7F2801D9002208E036
:10116000064A02EB5002C007127800D1120902F0C1
:101170000F0201209040084070470000547500089D
:101180003EB503F013FB04461A480078FFF725FB31
:1011900002460B4618A1204603F0A6FA0020194D7E
:1011A0000090019002906868FFF743FB02460B46EF
:1011B00015A1684602F050FD6A4615A1204603F0CD
:1011C000ADFA287808B115A200E015A215A12046B5
:1011D00003F0A4FA204603F0C7FB0546014615A01C
:1011E00001F03AFC204603F005FB284603F0C2FB61
:1011F0003EBD00008C0000206465766963655F6910
:101200006400000090000020252E316600000000E0
:101210006375725F616E676C650000006F6E000041
:101220006F6666006D6F746F725F7374617475734F
:1012300000000000676174657761795F746F5F63B8
:101240006F6E736F6C6500000748084A81781170F3
:101250000179C3780371C1708179437983714171D8
:10126000D0F8030050607047C02A00209000002092
:101270002DE9FC4103220021012005F085FC164CDC
:10128000032200212060012005F07EFC0025606023
:101290000526CDE900654FF480672B463A460FA13D
:1012A000104805F02BFECDE90065044600233A46C0
:1012B0000DA1104805F022FE0546012C02D00EA01B
:1012C00002F0BAFC012D02D012A002F0B5FCBDE87C
:1012D000FC4105F09BBA0000840000207461736B30
:1012E0005F540000D56400087461736B5F545F6ED7
:1012F00065740000F56400087461736B5F542063CB
:1013000072656174696F6E206661696C6564210A3B
:10131000000000007461736B5F545F6E657420633E
:1013200072656174696F6E206661696C6564210A1B
:1013300000000000FEE700F005B970B504464FF468
:101340007A7502E0284600F0FDF8641EA4B2F9D2D6
:1013500070BD70B515460E46044643F2390200785A
:101360000023012105F01AF801462068814206D1C8
:10137000C0B22A46314603F07DFB012800D0002090
:1013800070BD704772B6FEE72DE9FC410446014688
:1013900021A002F051FC204603F062FA80461FA112
:1013A00003F050FA046921A1404603F04BFA224DA4
:1013B000007D22A12870404603F044FA0146D1E99D
:1013C0000601FFF779FA064620A1404603F03AFAF3
:1013D0000146D1E90601FFF76FFA0746404603F0E0
:1013E00009FA1DA12046FEF72CFF002811D1CDE9F6
:1013F000006704236A460021287801F09DFB012044
:10140000FFF79BFF164800231A461946006805F0AF
:1014100029FCBDE8FC81000025730000636F6E6E3F
:10142000656374696F6E5F74797065006465766971
:1014300063655F69640000008C000020746172675E
:1014400065745F616E676C65000000006D61785FB8
:1014500073706565640000007273343835000000F5
:101460008400002010B590F821100022022905D038
:101470000421816380F82020012010BD01680B68E1
:1014800023F00E030B6001680B6823F001030B606F
:1014900090F84030C46B012101FA03F3636080F8D7
:1014A000211080F82020104610BD000010B590F8E3
:1014B00021100024022903D00421816301243DE08E
:1014C00001680A6822F00E020A6001680A6822F0C8
:1014D00001020A601A4A0168914201D1012121E00A
:1014E000174A1432914201D110211BE0144A2832CC
:1014F000914201D1891515E0114A3C32914201D146
:1015000089140FE00E4A5032914202D14FF48031DB
:1015100008E00B4A6432914202D14FF4801101E09D
:101520004FF08071064A083A5160012180F821107D
:10153000002180F82010416B01B18847204610BD82
:101540000800024070B5044600F004F90546601C2E
:1015500002D004480078044400F0FCF8401BA0428C
:10156000FAD370BD000000202DE9F84FDFF8B891E4
:101570000024A9F1040B23460F2709F1040AABF15B
:10158000040EC9E00125A5402A40AA427DD1674E3C
:10159000D1F804C0ACEB0608B44532D014DCBCF181
:1015A000030F3AD009DCBCF1000F2AD0BCF1010FC7
:1015B0001CD0BCF1020F31D11DE0BCF1110F17D0CE
:1015C000BCF1120F2AD119E0B8F5881F19D006DC3A
:1015D000B8F5803F15D0B8F5801F1FD111E0B8F5E0
:1015E000001F0ED0B8F5041F18D10AE0CB6815E033
:1015F000CB681B1D12E0CB6808330FE0CB680C33BF
:101600000CE08B682BB1012B4FF0080303D0456130
:1016100004E0042302E0056100E00023FF2A01D872
:10162000064601E000F104064FEA840501D9A5F160
:101630002005D6F8008007FA05FC28EA0C0803FA12
:1016400005F548EA0508C6F800804D68ED0062D54A
:10165000374DAE6946F00106AE61AD6924F0030670
:1016600005F001050095334D06EB050CDCF808503C
:10167000A607360F07FA06F825EA0805DFF8B8804E
:10168000404503D14FF0000817E044E0DFF8AC809C
:10169000404502D14FF001080FE0DFF8A48040453B
:1016A00002D14FF0020808E0DFF89880404502D1EF
:1016B0004FF0030801E04FF0040808FA06F848EA82
:1016C0000508CCF808804D68D9F80060ED024D4659
:1016D00001D5164300E096432E604D68DAF80060AD
:1016E000AD02554601D5164300E096432E604D6885
:1016F000DBF80060AD035D4601D5164300E096437C
:101700002E604D68DEF80060ED03754601D5164386
:1017100000E096432E60641C0D682A46E5407FF485
:1017200031AFBDE8F88F000008040140000011103F
:10173000001002400000014000080140000C014080
:1017400000100140001401400AB101617047090412
:10175000FBE700000148806870470000000000209F
:1017600002488168027811448160704700000020BF
:10177000074810B5016841F010010160032000F036
:1017800075F80F2000F006F800F024F8002010BDD6
:101790000020024070B50D4D04464FF47A71287850
:1017A000B1FBF0F00A490968B1FBF0F000F0C5FDAB
:1017B00048B9102C07D200222146501E00F036F8FE
:1017C00000206C6070BD012070BD00000000002092
:1017D0000C0000200C4808B5816941F001018161CD
:1017E000816901F001010091C16941F08051C1613D
:1017F000C06900F0805000900448416821F0E06129
:1018000041F00071416008BD00100240000001403D
:10181000002809DB00F01F020121914040098000EF
:1018200000F1E020C0F8001170470000F0B40E4B4A
:101830001B680C46C3F30223C3F10705042D00D92E
:101840000425191D072901D2002300E0DB1E012613
:1018500006FA05F1491E214099409E40761E164029
:101860003143F0BC02F00CBA0CED00E0064900F088
:10187000070208684FF6FF03184040EA0220034AB7
:1018800010430860704700000CED00E00000FA050E
:101890002DE9F0470F46050061D0434E306800F057
:1018A0000700B84209D2306820F0070038433060A2
:1018B000306800F00700B84251D128683B4C8107DE
:1018C00012D5400703D5606840F4E0606060287876
:1018D000000703D5606840F4605060606068A968E4
:1018E00020F0F000084360602878C00728D06868BE
:1018F000012810D02168022810D0890700292EDA8B
:10190000616821F0030101436160FFF723FF804616
:1019100041F288390DE021688903EFE78901EDE79D
:10192000FFF718FFA0EB0801494502D90320BDE8E5
:10193000F0876068696800F00C00B0EB810FEFD1B0
:10194000306800F00700B8420BD9306820F007007B
:1019500038433060306800F00700B84201D0012001
:10196000E5E72878400705D56068E96820F4E0607D
:10197000084360602878000706D56068296920F46C
:10198000605040EAC100606000F038F86168084AC1
:10199000C1F30311515CC84006490860064800685D
:1019A000FFF7F8FE0020C2E70020024000100240CE
:1019B0008A7200080C000020040000200448054939
:1019C00000684968044AC1F30221515CC84070476D
:1019D0000C000020001002409A72000804480549DB
:1019E00000684968044AC1F3C221515CC84070478D
:1019F0000C000020001002409A7200080E4A516844
:101A00000E4801F00C03042B11D0082B0FD10C4809
:101A1000C1F38343C903C05C0AD55168084AC1F3C6
:101A20004041921E515C054A5043B0FBF1F07047B3
:101A300004494843704700000010024000127A0039
:101A40007A72000800093D002DE9F84F040070D0BB
:101A50002078C04DC00749D06868C0F381000128D4
:101A600007D06868C0F38100022809D16868C00304
:101A700006D52868800339D560680028E7D035E0AE
:101A80006068B0F5803F0BD010B1B0F5A02F11D039
:101A9000286820F480302860286820F4802002E044
:101AA000286840F480302860606890B1FFF752FEEB
:101AB00006460AE0286840F480202860F0E700BF6E
:101AC000FFF748FE801B642873D828688003F7D589
:101AD0000CE0FFF73FFE064605E000BFFFF73AFEC9
:101AE000801B6428F0D828688003F7D420789A4EA9
:101AF00080074FF001094FF0000839D5686810F0F1
:101B00000C0F07D06868C0F38100022809D168680B
:101B1000C00306D42868800714D52069012808D19D
:101B200010E02069B0B1C6F80090FFF713FE074639
:101B300005E00AE1FFF70EFEC01B0228C4D82868A2
:101B40008007F7D52868616920F0F80040EAC100F5
:101B500028600DE0C6F80080FFF7FCFD074604E0B2
:101B6000FFF7F8FDC01B022823D828688007F7D4A8
:101B7000207800072CD57948A169D9B1C0F8009028
:101B8000FFF7E8FD074604E0FFF7E4FDC01B02286D
:101B90000FD8686A8007F7D571484FF4FA5100688A
:101BA000B0FBF1F0009000BF0098411E0091FAD206
:101BB0000EE080E0C0F80080FFF7CCFD074604E0AF
:101BC000FFF7C8FDC01B022875D8686A8007F7D4E4
:101BD0002078400760D5E8690027C00008D4E8698C
:101BE00040F08050E861E869012700F080500090E3
:101BF0005C480168C90513D40168834641F48071CB
:101C00000160FFF7A7FD824606E000BFFFF7A2FDD7
:101C1000A0EB0A0064284ED8DBF80000C005F5D51B
:101C2000E06801280AD008B1052813D0286A20F0FE
:101C300001002862286A20F0040002E0286A40F0CF
:101C400001002862E06841F2883B98B1FFF782FD0D
:101C500082460BE0286A40F004002862EEE700BFED
:101C6000FFF778FDA0EB0A0159455AD8286A80078A
:101C7000F6D50CE0FFF76EFD824605E0FFF76AFD42
:101C8000A0EB0A0159454CD8286A8007F6D41FB149
:101C9000E86920F08050E861E06988B36968C1F3C1
:101CA0008101022944D00228C6F8608004D0FFF7E1
:101CB00051FD044638E034E0FFF74CFD074604E0F0
:101CC000FFF748FDC01B02282BD828688001F7D4F5
:101CD000206AB0F5803F05D16868A16820F4003023
:101CE00008436860D4E908010843696821F4741165
:101CF00008436860C6F86090FFF72CFD044606E0D4
:101D000025E000BFFFF726FD001B022809D8286840
:101D10008001F7D51BE000BFFFF71CFD001B022868
:101D200002D90320BDE8F88F28688001F4D40EE0C2
:101D30000128F7D06868226A00F48031914204D10A
:101D4000616A00F47010884201D00120EAE70020A7
:101D5000E8E70000001002400000424280044242D6
:101D60000C0000200070004070B5040009D0606ACB
:101D7000002540B125616561A56294F8510040B12C
:101D80000CE0012070BD6068B0F5827FF4D0E561A1
:101D9000F2E784F85050204600F040F8022084F822
:101DA00051002068016821F040010160A08821896C
:101DB00000F4827001F404410843A18901F4006138
:101DC0000843217C01F002010843217D01F001015B
:101DD0000843218B01F400710843217F01F0380191
:101DE000084394F8201001F080010843218D01F48C
:101DF0000051084321680860A069042101EA1040ED
:101E0000216848602068C16921F40061C16165658D
:101E1000012084F85100002070BD000030B585B06D
:101E200000240094019402940394006815498842A8
:101E300025D11548C16941F48041C161C16901F4EE
:101E400080410491816941F00801816180690F4DF1
:101E500000F0080004904FF4204000900220019010
:101E60000320039069462846FFF77EFB4FF480402D
:101E7000CDE90004694628460294FFF775FB05B0DA
:101E800030BD00000038004000100240000C01404E
:101E90002DE9F84F044690F851001D4616460F46AE
:101EA000012838D160684FF00408B0F5827F01D175
:101EB000A06830B3FFF74EFC8246002F75D0002E8D
:101EC00073D094F85000012825D04FF0010984F810
:101ED000509084F851804FF00008C4F85480A763F4
:101EE000A687E687C4F83080A4F83480A4F836804A
:101EF000C4F84080C4F84480A068B0F5004F0CD00E
:101F000015E084F85180009313460A46204600F0FD
:101F10001CF9BDE8F88F0220FBE72068016821F07A
:101F2000400101602068016821F48041016020685F
:101F30000168490603D4016841F040010160E0688E
:101F4000C0B134E020688168C90709D0007BA16B6B
:101F50000870A06B401CA063E08F401EE08709E082
:101F6000FFF7F8FBA0EB0A00A84202D3681C01D0DF
:101F700032E085B3E08F0028E4D11BE0206881685F
:101F8000C90709D0C068A16B0880A06B801CA06342
:101F9000E08F401EE0870AE0FFF7DCFBA0EB0A00C1
:101FA000A84203D3681C02D016E012E09DB1E08F76
:101FB0000028E3D152462946204601F01DFB08B116
:101FC0002020606584F8519084F85080606D00286E
:101FD0009FD001209DE7FFE784F8519084F850805E
:101FE000032096E72DE9F84F984616468A460446A0
:101FF000FFF7B0FB814694F8510001281ED1BAF1D9
:10200000000F73D0002E71D094F85000012815D025
:10201000012784F85070032084F85100002565657D
:10202000C4F830A0A686E686A563A587E587656423
:102030002564A068B0F5004F03D00CE00220BDE895
:10204000F88F2068016821F0400101602068016874
:1020500041F48041016020680168490603D40168A9
:1020600041F040010160E068B0F5006F606803D0A6
:1020700048B3012E27D047E008B1012E1FD1206BB5
:1020800021680088C86006E020688168890709D552
:10209000216B0988C160206B801C2063E08E401E8C
:1020A000E0860CE0FFF756FBA0EB0901414503D3A6
:1020B000B8F1FF3F03D035E0B8F1000F32D0E08E29
:1020C0000028E1D123E0206B21680078087306E046
:1020D0002068816889070AD5216B09780173206B14
:1020E000401C2063E08E401EE0860DE02BE0FFF7F1
:1020F00031FBA0EB0901414503D3B8F1FF3F03D009
:1021000010E0B8F1000F0DD0E08E0028E0D14A4673
:102110004146204601F09EFA08B120206065A06883
:1021200030B109E084F8517084F85050032086E7FC
:102130002068C1688068009084F8517004F8505F8E
:1021400060680028F3D0012079E72DE9FF4F81B0C6
:102150001D46934604464FF001090E9EFFF7FAFA1A
:10216000074694F851006168012806D0B1F5827FD6
:102170003CD1A168C9BB042838D10298002871D08D
:10218000BBF1000FFBD0002DF9D094F850000128CE
:102190002CD04FF0010A84F850A094F85100042884
:1021A00002D0052084F851004FF00008C4F8548094
:1021B000C4F838B0E587A58702992163E586A5862E
:1021C000C4F84080C4F8448020680168490603D4FC
:1021D000016841F040010160E068B0F5006F60689F
:1021E00008D0F0B3012D49D081E0FFE7022005B00F
:1021F000BDE8F08F08B1012D39D1206B216800882E
:10220000C860206B801C2063E08E401EE0862EE0BC
:102210002068816889070FD5E18E69B1B9F1010F96
:102220000AD1216B0988C160206B801C2063E08E7D
:10223000401EE0864FF0000920688168C9070CD075
:10224000E18F51B1C068A16B0880A06B801CA063B6
:10225000E08F401EE0874FF00109FFF77BFAC01BBB
:1022600001E00BE067E0B04201D3701C50D1E08E7A
:102270000028CDD1E08F0028CAD13EE0206B216834
:1022800000780873206B401C2063E08E401EE086BF
:102290002DE02068816889070FD5E18E69B1B9F119
:1022A000010F0AD1216B09780173206B401C206358
:1022B000E08E401EE0864FF0000920688168C90763
:1022C0000CD0E18F51B1C068A16B0870A06B401CAD
:1022D000A063E08F401EE0874FF00109FFF73AFA54
:1022E000C01BB04202D3701C01D011E086B1E08E59
:1022F0000028CED1E08F0028CBD13A463146204687
:1023000001F0A8F950B12020606584F8508012E0F7
:1023100084F851A084F85080032068E7A06818B9B9
:102320002068C1688068009084F851A084F85080CB
:10233000606D0028F1D0012059E710B5401EB0F1C2
:10234000807F01D3012010BD4FF0E02460610F2198
:10235000601701F095FC0020A0610720206100209B
:1023600010BD18B5034690F84200202801D0022085
:1023700018BD61B15AB10120186300205863184696
:1023800001F030FB0028F3D1196B012901D00120A5
:1023900018BD19680A684968009119680C3151E83C
:1023A000002F42F0100241E80024002CF5D118BDA6
:1023B00038B50C46054632220F491048FFF7D1FFC9
:1023C0000F492868884216D10B484078042812D15A
:1023D0000C4869464480002000900B48006804F0D7
:1023E000BDFC0098012806D1084900070860BFF32A
:1023F0004F8FBFF36F8F38BDC02A0020B00100207F
:1024000000440040900000208800002004ED00E01F
:1024100070470000F8B5016804460868CA684B694F
:1024200010F00F0F4FF0000559D003F0010602F431
:102430009077374365D0C10705D0D10503D5616CCE
:1024400041F001016164410705D5D90703D0616CF2
:1024500041F002016164810705D5D90703D0616CA1
:1024600041F004016164010707D502F02001314306
:1024700003D0616C41F008016164616C00293AD0BD
:10248000800604D5900602D5204601F0EEF92068BA
:102490004069616CC0F38010090700D460B3204626
:1024A00001F0BCF920684069400621D5206814304D
:1024B00050E8001F21F0400140E80012002AF5D149
:1024C000E06BA8B16D494163E06BFEF7EFFF0028B8
:1024D00011D0E06B416B01B0BDE8F04008478306C6
:1024E0000FD593060DD52046BDE8F84001F0BDB9E3
:1024F0002046FFF78DFFF8BD2046FFF789FF656492
:10250000F8BD266B2023012E7CD1C6067AD5D606CF
:1025100078D508684868009048694FF00206400680
:1025200040D5E16B086840680004000CE8D0A28D3B
:102530008242E5D9E085886920282DD020680C30BA
:1025400050E8001F21F4807140E80012002AF5D104
:102550002068143050E8001F21F0010140E800120B
:10256000002AF5D12068143050E8001F21F0400106
:1025700040E80012002AF5D184F842302563206833
:102580000C3050E8001F21F0100140E80012002A32
:10259000F5D1E06BFEF766FF6663A08DE18D401A12
:1025A00081B22AE0A08DE18D401A81B2E08D002831
:1025B000A6D00029A4D022680C3252E8000F20F4E3
:1025C000907042E80007002FF5D12068143050E8E1
:1025D000002F22F0010240E80027002FF5D184F8F7
:1025E0004230256320680C3050E8002F22F01002A2
:1025F00040E80023002BF5D166632046FFF7D8FEA4
:10260000F8BDFFE705062BD5150629D594F841003E
:102610002128F5D1A068B0F5805F01D12069B0B163
:10262000206A411C2162216800784860E08C401ECD
:102630000004000CE084E3D12068C16821F080012F
:10264000C1602068C16841F04001C160D8E7206ADC
:102650000088C0F308004860206A801C2062E5E71B
:102660004006CDD55006CBD5CA68204622F04002A0
:10267000CA6084F8413000F0ECF8C1E70D3800087A
:1026800070B5040004D094F84100002510B106E0B4
:10269000012070BD84F84050204600F023F824202B
:1026A00084F841002068C16821F40051C1602046CF
:1026B00001F03CF92068016921F490410161206832
:1026C000416921F02A0141612068C16841F400514B
:1026D000C1606564202084F8410084F8420065638D
:1026E000002070BD70B586B000240094019402945F
:1026F00003942B4E03682B49022003222A4DB34238
:1027000021D18B6943F480438B618B6903F480434F
:1027100004938B6943F004038B618969039201F090
:10272000040104910102CDE9001069462846FEF734
:102730001BFF2815CDE90004694628460294FEF7E0
:1027400013FF06B070BD194EB342FAD1CB6943F402
:102750000033CB61CB6903F4003304938B6943F0FE
:1027600004038B618969039201F00401049104213F
:10277000CDE9001069462846FEF7F6FE0820CDE9AF
:102780000004694628460294FEF7EEFE0022114638
:102790002620FFF74BF82620FFF73AF8D1E7000094
:1027A0000038014000100240000801400044004091
:1027B00070472DE9F843044690F8410098461646C4
:1027C0000D46202802D00220BDE8F88385B17EB1F5
:1027D00000206064212084F84100FEF7BBFFA6843E
:1027E0008146E684A0682027B0F5805F02D003E030
:1027F0000120E9E7206910B12E4600250EE00026F1
:102800000CE08021204601F008F9A8B9C6B116F8FD
:10281000010B21684860E08C401EE084E08C4B4650
:102820004FF00002CDF800800028EAD14FF04001BF
:10283000204601F0F2F840B184F841700320C3E76C
:1028400035F8020BC0F30800E3E784F8417000207C
:10285000BAE77047FEE70000014948607047000092
:10286000FC00002000B599B021494FF40070CDE97B
:102870000001A1F50073A1F51B7102904FF47A726B
:1028800001F1100000F0BEF958221A4903A8FDF723
:10289000ADFC03A9184800F0D3F900284FF02F0130
:1028A00016A009D0FDF7F3FC002813D02F2113A0A8
:1028B000FDF7EDFC401C0EE0FDF7E9FC28B12F21EF
:1028C0000EA0FDF7E4FC401C00E00CA00146342201
:1028D00010A003E009A00146382217A001F0ACF9CE
:1028E0001F4B00221FA1044800F046FD19B000BD97
:1028F000702D0020FC720008142B00202E2E5C4945
:102900006E745C4D5154545C496E745F4D51545417
:102910002E6300005B25733A25645D4D51545420AD
:10292000636F6E6E6563742053657276657220699D
:1029300073206F6B0D0A00005B25733A25645D4DB3
:1029400051545420636F6E6E6563742053657276C4
:102950006572206973206E6F206F6B0D0A00000096
:102960005D340008636F6E736F6C655F746F5F67D3
:10297000617465776179000010B50021164800F098
:102980002DFE40F25B7215491348FEF7E2FC012868
:102990004FF02F0112A009D0FDF779FC002812D0CA
:1029A0002F210FA0FDF773FC401C0DE0FDF76FFC1D
:1029B00028B12F210AA0FDF76AFC411C00E008A104
:1029C0001F220DA003E006A00146212211A0BDE8B0
:1029D000104001F031B90000042B0020FC00002061
:1029E0002E2E5C496E745C4D5154545C496E745F7C
:1029F0004D5154542E6300005B25733A25645D638A
:102A00006F6E6E656374204D515454206973206F4E
:102A10006B0D0A005B25733A25645D636F6E6E650E
:102A20006374204D515454206973206E6F206F6B76
:102A30000D0A000010B500F0BDF8FFF79DFFBDE8DE
:102A40001040FFF70FBF00004FF47A71014800F00B
:102A5000F1BC0000142B00201FB5084600218DF8A2
:102A600000100290FDF7E6FB03906A4602A10748BA
:102A700000F070FA1FBD0000676174657761795FCF
:102A8000746F5F636F6E736F6C650000142B0020B2
:102A900070B50D460A46064601464FF47A730C4857
:102AA000FFF787FE6420FEF746FC0AA001F0C4F899
:102AB000002405E0315D0CA001F0BEF8641CA4B256
:102AC000AC42F7D3BDE8704009A001F0B5B80000F2
:102AD000B0010020676174657761792073656E6469
:102AE00020636D643A000000253032782000000039
:102AF0000A0000001CB5002300938DF8000004209C
:102B00008DF80100080A8DF802000193100A8DF873
:102B100004008DF803108DF805200621684603F0A7
:102B20001FFD8DF80600000A8DF807000821684691
:102B3000FFF7AEFF1CBD00002DE9F04782465F00A5
:102B400007F10900C6B21D4691468846304603F09B
:102B5000B3F980F800A0102141704FEA182181706C
:102B600080F80380290A01714571044687710020AD
:102B70000BE000BF39F810100A0A04EB4001CA71DB
:102B800019F81020401C0A72C0B2A842F2D3B01E3D
:102B900081B2204603F0E4FCA11901F8020D000AFD
:102BA000487031462046FFF773FF2046BDE8F047E6
:102BB00003F0C8BD70B510A001F03EF803F0E6FCCC
:102BC0000E4D4FF48074002221462846FEF7BCFDCE
:102BD0000A20FEF7B0FB012221462846FEF7B4FD8D
:102BE0000A20FEF7A8FB064803F022FFBDE870406C
:102BF0004FF4FA50FEF7A6BC31323300000C01400E
:102C0000DC000020F0B4DDE90565049F01650021CA
:102C10004FEA010400EBC10C491CCCF82440052903
:102C2000F8DB46610462C0E90127C0E90353047779
:102C30000121C46440F8541BF0BC00F0D1BD000079
:102C4000F0B59BB00E4604464FF0FF373D46582284
:102C500020496846FDF7CAFA206A88BB16A800F02A
:102C6000BFFD16A8616800F0B3FD06B96E4604F119
:102C70005400318BA16100F09FFD3246A1682069AC
:102C800000F0E8F9011E21DD16AA204603F05CFBE6
:102C900005001BD116AA0221204603F03CFE0228A3
:102CA0000DD1FF208DF8600000208DF8640018A978
:102CB00019A8E368626900F033F8012801D03D46A5
:102CC00004E09DF860500DB9012020621BB0284639
:102CD000F0BD0000A47200082DE9FC41074615462E
:102CE0000E4600246846009303F044F960F307049D
:102CF000C4F3C00030702009387001A9009800F0BA
:102D0000DBF80099019A014400910A44511A022902
:102D100004DB684603F034F928800120BDE8FC811B
:102D20002DE9FC41074600240E46254668460092E0
:102D300003F020F90146204661F30700000902284C
:102D400018D101A9009800F0B7F800990546084489
:102D5000019900900144081A02280BDB684603F031
:102D600009F960F30704E0093870684603F002F9D6
:102D7000307001252846BDE8FC812DE9FC5F8046C6
:102D8000DDE90EA00024CDE90004994617460E4661
:102D90002546DDF834B0684603F0ECF860F307042C
:102DA000200903282CD1C4F3C00188F80010C4F313
:102DB0004100306004F00100387001A9009800F073
:102DC0007BF8009905460844019900904418224672
:102DD00069460C9803F0DDF890B10098201A0FD4E2
:102DE0003068002804DD684603F0CAF8A9F800003E
:102DF0000098211ACAF8001000990125CBF800109C
:102E00002846BDE8FC9F2DE9FC4781460A9800242E
:102E100000909A46164688462546684603F0AAF86A
:102E20000146204661F307000009092826D101A9BF
:102E3000009800F041F80099054608440199009077
:102E40004718381A022819DB684603F099F8A9F8E0
:102E5000000034600EE03168414502DD4FF0FF357F
:102E60000CE0684603F086F831688B00491C31603D
:102E70004AF803000098B842EDD301252846BDE882
:102E8000FC87F8B5012500240E4607460C60641C3B
:102E9000042C0FDC01216846B84701280AD19DF8AF
:102EA0000000316800F07F0202FB0511ED01316086
:102EB0000006ECD42046F8BD024A10600248FFF735
:102EC000E0BF0000F80000209546000810B503465A
:102ED0000020CA1701EB526424F07F02891ACAB29B
:102EE000E111002902DD00BF42F080021A5400F116
:102EF0000100EEDC10BD70B504680E4624B120461A
:102F0000FDF798F9054601E0D0E901543046FDF798
:102F100091F9854205D12A4631462046FDF7A8F9A8
:102F200008B1002070BD012070BD0000401C802849
:102F300001DA401C7047B0F5804F01DA801C704701
:102F40000349884201DAC01C7047001D7047000029
:102F5000FFFF1F002DE9F04305464FF0FF37006AE1
:102F600089B014463E464FF00009884670B307A862
:102F700000F036FC07A8696800F02AFC20780128D8
:102F800001D0022803D1284601F068FFA080D4E9CF
:102F90000201CDE90501CDE90289CDF81090A188A3
:102FA0006078CDE9000123780022A968286900F043
:102FB0001BF9011E25DD07AA284603F0C5F9060006
:102FC0001FD12078012802D0022808D019E007AAD2
:102FD0000421284603F09FFC042807D010E007AA2C
:102FE0000721284603F097FC072809D1E8680090DC
:102FF00001AA02A903A86B69FFF76EFE012800D0A1
:103000003E4609B03046BDE8F083F8B50024069E80
:1030100005460090042901DAA01EF8BD62F30714EA
:1030200063F3C304062A24F0060000D1801CC1B259
:10303000684603F04BFD02210098FFF747FF009917
:10304000084400903146684603F046FD0098401B56
:10305000F8BD00002DE9F843074600908846144665
:103060000025104600F082F88146FFF75FFF4045DB
:1030700002DDA81EBDE8F8832E46314666F307013F
:103080006846103103F022FD49460098FFF71EFF05
:10309000009908440090207A04281DD02FA168468A
:1030A00003F000FD0321684603F010FDA07E66F3E7
:1030B000070560F34105E07E08B145F004056807A7
:1030C00007D594F83D0060F3C40594F83C0060F324
:1030D0004515206C40B905E022A1684603F0E2FCEA
:1030E0000421E0E7A06C08B145F08005E06C08B968
:1030F000606D08B145F040052946684603F0E6FCDE
:10310000218B684603F0E8FC04F10C0168460EC907
:1031100003F0F1FCE07E68B12434684694E80E00C8
:10312000243C03F0E8FC3034684694E80E00303C60
:1031300003F0E1FC280605D504F1400168460EC9FC
:1031400003F0D9FC680605D54C34684694E80E00B7
:1031500003F0D1FC0098C01B8CE700004D5149736F
:10316000647000004D5154540000000070B50446D6
:10317000007A0025032802D0042802D002E00C25A2
:1031800000E00A2504F10C0007C800F06FF90544BF
:10319000E07EAD1C78B1243494E80700243C00F0B4
:1031A00065F93034064694E80700303C00F05EF9DB
:1031B000304405442D1D206C08B9A16C29B1D4E917
:1031C000111200F053F90544AD1CE06C08B9616DB3
:1031D00029B1D4E9141200F049F90544AD1C284680
:1031E00070BD0C2200F0AFB82DE9FC5F1C46129EAA
:1031F000CDE90060DDF838B09046DDF830A0DDE9BB
:103200000F23894607465946204600F030F8054608
:10321000FFF78CFE484503DD6FF00100BDE8FC9F21
:10322000302168F3C30164F342016AF3000101A88D
:1032300003F04CFC29460198FFF748FE0199084429
:103240000190DDE90F23594601A803F054FC002C3E
:1032500003DD01A80D9903F03FFC32461199019856
:10326000FCF7C4FF019830440190C01BD6E770B54D
:103270000E46114604461A463046049D00F0F6F804
:103280002844801C002C00DD801C70BD2DE9FF4F00
:1032900083B0064610A8894690E88009002492462B
:1032A000254641463846009600F036F80190FFF773
:1032B0003DFE484503DDA01E07B0BDE8F08F64F376
:1032C000070480346AF3C30424F00600801CC1B2F2
:1032D000684603F0FBFBDDE90001FFF7F7FD00990D
:1032E000084400906846069903F0F6FB0FE000BF23
:1032F00005EB450108EB810090E80E00684603F0FD
:10330000FAFB1BF80510684603F0E0FB6D1CBD429C
:10331000EEDB0098801BCFE72DE9F04102250F4638
:10332000064600240AE000BF04EB440007EB8000DF
:1033300007C800F09BF80544641CED1CB442F3DBA5
:103340002846BDE8F08138B50023044600900229E4
:1033500001DA981E38BD194663F3070162F30711BD
:10336000684603F0B3FB00210098FFF7AFFD00991A
:1033700008440090001B38BD2DE9F0438DB04FF09C
:10338000000806910446CDF81C80CDF820808DF809
:103390002C204FF0FF37006A99460E463D4620B379
:1033A00009A800F01DFA09A8616800F011FA20468A
:1033B00001F054FD83B20BAA06A901208DE8070095
:1033C0000022A1682069FFF761FF011E0DDD09AA37
:1033D000204602F0B9FF050007D109AA09212046BD
:1033E00003F099FA092804D03D460DB02846BDE8FF
:1033F000F083CDE90278E1686069CDE9000102ABB4
:1034000003AA012104A8FFF7FEFC012802D1029DB6
:10341000802DEAD05FF0000004EBC001496A19B1C9
:10342000401C0528F8DBE0E704EBC0000025C0E9FC
:103430000969DAE77CB506460D460024684600F0C7
:10344000CFF92946684600F0C3F96946304601F0D5
:1034500095FB401C00D1441E20467CBD02490068FB
:103460004968806808470000FC00002010B510B1D2
:10347000FCF7E0FE0146084610BD00002DE9F043D0
:1034800085B0002424480094019402940394816937
:1034900041F010018161816901F01001049181699D
:1034A00041F020018161816901F02001049181696D
:1034B00041F004018161816901F004010491816995
:1034C00041F0080181618069012200F00800DFF805
:1034D0004C801502049029464046FEF735F9DFF886
:1034E0004090012229464846FEF72EF90227012680
:1034F00003970095CDE9016469464046FEF734F82C
:1035000003970095CDE9016469464846FEF72CF81B
:1035100005B0BDE8F0830000001002400008014043
:10352000000C01400F4810B50D4901604FF4827145
:10353000416000218160C1604FF400720161C0E907
:103540000512C1610162416281620A21C162FEF716
:103550000BFC002803D0BDE81040FDF713BF10BDE1
:1035600000380040100100200C4810B50A490160E5
:103570004FF4E1314160002181600C22C160C0E95B
:1035800004128161C161FFF77BF8002803D0BDE818
:103590001040FDF7F7BE10BD003801406801002063
:1035A0000C4810B50A4901604FF4E1314160002137
:1035B00081600C22C160C0E904128161C161FFF722
:1035C0005FF8002803D0BDE81040FDF7DBBE10BD5A
:1035D00000440040B0010020FEE7FEE7016003491F
:1035E0004160034981600349C1607047B7680008C2
:1035F000EB680008B1680008F8B5044640684FF46D
:103600008273984217D1A0684FF48065B0F5004FDF
:1036100001D0A8420FD12068066826F04006066057
:103620006068984207D1A068A84204D100920B4676
:103630000022012103E000920B4600228021204657
:1036400000F022F8002804D0606D40F02000606592
:103650000320F8BDF8B515460E460B460092044609
:103660000122022100F010F840B9334600228021E7
:103670002046009500F008F8002804D0606D40F066
:10368000200060650320F8BD2DE9F8431E469146F1
:1036900088460446089DFEF75DF8401B351AFEF784
:1036A00059F8074625480068C0F3CB30684338E036
:1036B000701C37D0FEF74EF8C01BA84203D215B1DC
:1036C000009860B32CE02068416821F0E00141607F
:1036D0006068B0F5827F0BD1A068B0F5004F02D0D2
:1036E000B0F5806F04D12068016821F040010160CD
:1036F000A06AB0F5005F09D12068016821F400518B
:1037000001602068016841F400510160012084F8E3
:103710005100002084F850000320BDE8F883002504
:10372000401E00902068816838EA010004D0002122
:103730004945BDD10020F0E70121F9E70C00002048
:1037400010B5FEF70DF803F007FC012803D0BDE823
:10375000104003F003BA10BD30B58FB02821684681
:10376000FCF75DFD14210AA8FCF759FD01210804AE
:10377000CDE900100024029402250491CDE9075000
:103780004FF4E01009906846FEF75EF908B172B692
:10379000FEE70F20CDE90A054FF48060CDE90C402B
:1037A00002210AA80E94FEF773F8002801D072B621
:1037B000FEE70FB030BD704701EB4102C2EBC11113
:1037C000024A126802EBC10141607047F400002018
:1037D000024A12681144416070470000F400002062
:1037E0000021416070470000024940680968401AA2
:1037F000C00F7047F4000020034940680968401A70
:1038000000D5002070470000F400002010B5406A89
:103810000021C185C184FEF7FBFD10BD01680C319C
:1038200051E8002F22F4907241E80023002BF5D1DB
:103830000168143151E8002F22F0010241E8002311
:10384000002BF5D1016B012909D101680C3151E838
:10385000002F22F0100241E80023002BF5D1202197
:1038600080F8421000210163704708B590F84210BB
:10387000222901D0022008BD82684FF480539A4269
:1038800001D1016921B1816A9A421BD04AB10AE093
:103890000268816A5268C2F308020A80816A891C40
:1038A00008E0026972B10268526802F07F020A7091
:1038B000816A491C8162C18D491E0904090CC185B8
:1038C00003D01BE002685268F1E70168CA6822F081
:1038D0002002CA600168CA6822F48072CA60016866
:1038E0004A6922F001024A61202180F84210002139
:1038F0004163026B012A03D0FEF75AFF002008BD86
:10390000016301680C3151E8002F22F0100241E8F8
:103910000023002BF5D101680A68D20602D50A6897
:1039200049680091818DFEF743FDE7E770B50446D5
:1039300000680169E26821F4405111430161216985
:10394000A0680843616908432168CA6841F20C63B2
:103950009A430243CA6020684169A26921F4407118
:10396000114341611E492068884202D1FEF736F8B2
:1039700001E0FEF723F800EBC00101EB00126068E4
:1039800064218000B2FBF0F3B3FBF1F36FF0180693
:103990007343B2FBF0F5B2FBF0F605EB830532237F
:1039A00003EB0515B5FBF1F5B6FBF1F605F0F005F7
:1039B00005EB0615B2FBF0F6B2FBF0F0B0FBF1F050
:1039C0006FF01802504306EB800003EB0010B0FBD1
:1039D000F1F0216800F00F002844886070BD0000FD
:1039E0000038014081628285C28500214164222124
:1039F00080F84210016921B10168CA6842F48072FE
:103A0000CA6001684A6942F001024A610068C168FF
:103A100041F02001C160002070472DE9F84398462D
:103A200017460D460446089E24E0701C22D0FDF780
:103A300091FEA0EB0800B0421AD8CEB12068C16850
:103A4000490717D5802D15D0402D13D00168C943E3
:103A500009070FD401680025406800902046FFF751
:103A6000DDFE0820606484F840500120BDE8F88342
:103A70000320FBE72068006835EA000004D000203E
:103A8000B842D2D00020F1E70120F9E70148FEF763
:103A9000C1BC0000B0010020FEE70000F8B5144CE6
:103AA0000546E068804760698047616AC5F3074062
:103AB000C5F3072699B1A26A8AB18DF800008DF886
:103AC00001608DF80250032168469047E069804705
:103AD0000546A0698047206980472846F8BD216ACD
:103AE0008847216A30468847216AE8B28847EDE76F
:103AF000B00000202DE9F8431A4C05461746E0684F
:103B00008846804760698047616AC5F30740C5F30E
:103B10000726A1B1A26A92B18DF800008DF801606C
:103B20008DF80250032168469047626A3946404644
:103B30009047A069804720698047BDE8F883216AE3
:103B40008847216A30468847216AE8B288470025BD
:103B500005E0E069804708F805006D1CADB2BD4284
:103B6000F7D3E6E7B0000020F8B5164C05460E4640
:103B7000E068804760698047A26A45F004058AB121
:103B8000280C8DF80000280A8DF801008DF80250ED
:103B90008DF80360042168469047A069804720693A
:103BA0008047F8BD216AC5F307408847216AC5F3FD
:103BB00007208847216AE8B28847216A304688474B
:103BC000EBE70000B0000020F8B51A4C0546164699
:103BD000E0680F46804760698047A26A45F00405A7
:103BE0009AB1280C8DF80000280A8DF801008DF894
:103BF0000250032168469047A26A314638469047F2
:103C0000A069804720698047F8BD216AC5F3074055
:103C10008847216AC5F307208847216AE8B28847A8
:103C2000002504E0216A785D88476D1CADB2B5427D
:103C3000F8D3E5E7B00000200FB4054B10B503A999
:103C4000044A029800F05CF910BC5DF814FB000017
:103C5000454E0008040100200FB4084B10B504A91C
:103C600002AA039800F04CF9044602A9002000F0D3
:103C7000CAFC204610BC5DF814FB00000746000893
:103C80000907090E002804DB00F1E02080F8001489
:103C9000704700F00F0000F1E02080F8141D70471D
:103CA00030B528B1144C031F002021680A4605E0F6
:103CB000084630BD9A4203D810465268002AF9D10E
:103CC000002800D041680BD00468A3EB0005A54292
:103CD00004D11B681C440346046002E0436000E01A
:103CE00023603AB11C68D51AA54203D115682C444B
:103CF0001C6052685A6030BD080100202DE9F04771
:103D000082460F4C10480D4E0E4F001B4FF000081E
:103D100020F007054FF0010900221146504601F03E
:103D200031F9002802D1306810B10020BDE8F087D9
:103D30003C60C4E90058C6F80090EDE70C01002093
:103D4000742F0020080100207031002002E008C814
:103D5000121F08C1002AFAD170477047002001E005
:103D600001C1121F002AFBD1704700002DE9FF5F3F
:103D700082B00021DDE90430020DDDF840B00343DC
:103D800018D044F61050A2F2FF3242431514119895
:103D900001281FD0A5EB0B00401C5FEA000A4FF082
:103DA00000064E4FDFF83891B046504615D5CAF19F
:103DB000000413E0119801244AA3012801D16FEAFD
:103DC0000B010298119AC0E90031C0E9024206B025
:103DD000BDE8F09FCBF10000DFE704460021404A38
:103DE000491842EB0450CDE9001012E0E00707D07B
:103DF00032463B4640464946FCF7F8FE8046894637
:103E000032463B4610461946FCF7F0FE06460F4682
:103E10006410002CEAD1DDE90401DDE90023BAF1E8
:103E2000000F06DAFCF7E2FE42464B46FCF7DEFEE8
:103E300005E0FCF74DFF42464B46FCF749FF0446C0
:103E40000E460022284BFCF71FFD03D84FF0FF3031
:103E5000014607E00022254B20463146FCF7EEFBE9
:103E6000FCF7B1FF102409E0002C0ADB0A22002332
:103E7000FCF754FD039B30321A55641E50EA0102D0
:103E8000F2D1641C039AC4F111031444119A012A5B
:103E900003D0012208430DD10AE0084304D00020DA
:103EA0004FF0110B119072E7A3EB0B056D1E0DE0A7
:103EB0005B4504DD4FF0000205F1010504E003DA83
:103EC0004FF00002A5F10105002AECD002981199EB
:103ED000C0E90231C0E9004579E700000000144064
:103EE0000000F03F300000000000F0430000E03F21
:103EF00030380A2801D201207047002070470000A6
:103F00002DE9FF4F95B09A46884606460025EEE11A
:103F1000252877D100242746F94A0121039400E09F
:103F2000044316F8013F203B01FA03F01042F7D199
:103F300030782A2811D06FF02F033078A0F13002AA
:103F4000092A16D8039A44F0020402EB820203EB1A
:103F500042021044761C0390EFE758F8042B0392BA
:103F6000002A03DA504244F40054039044F002045F
:103F7000761C30782E2816D116F8010F44F0040470
:103F80002A280DD06FF02F023078A0F13003092BD2
:103F900009D807EB870302EB4303C718761CF3E746
:103FA00058F8047B761C30786C280FD006DC4C283F
:103FB00017D068280DD06A2814D104E0742810D0D6
:103FC0007A280FD10DE044F400140AE044F4801480
:103FD00001E044F440147278824202D104F5801466
:103FE000761C761C307866280BD013DC582877D0E6
:103FF00009DC002875D04528F6D04628F4D047289B
:104000001AD193E118E0632835D0642879D0652867
:1040100012D18BE1702873D008DC6728F1D06928B1
:104020006FD06E280DD06F2806D1ACE073282CD04D
:10403000752874D0782853D05246179990476D1C34
:1040400054E1C4F30250022809D003280DD0D8F857
:10405000001004280DD00D6008F1040846E1D8F8DE
:104060000010EA17C1E90052F6E7D8F800100D80F9
:10407000F2E70D70F0E718F8041B8DF8001000202F
:104080008DF80100EB46012003E058F804BB4FF027
:10409000FF3061074FF0000102D40DE009F101018A
:1040A0008946B9420FDA8145F8DB1BF8091000296F
:1040B000F4D108E009F1010189468142FADB1BF8DD
:1040C00009100029F6D103985346A0EB09072146B1
:1040D0003846179A00F080FA284400EB090507E0FB
:1040E00044E008E10DE01BF8010B52461799904798
:1040F000B9F10109F7D2534621463846179AF2E042
:1041000039E00A21C4F302524FF0000B0091022A59
:1041100006D058F8040BC117032A09D00AE023E09F
:1041200008F1070020F00702F2E80201904605E0DE
:1041300000B2C117042A01D140B2C117002906DA22
:104140000A460021404261EB02012D2202E02205D5
:1041500004D52B228DF80420012203E0E20701D0D0
:104160002022F7E7914657E00A2100E010214FF0A6
:10417000000B00910BE010214FF0000B44F0040401
:104180000827009103E008204FF0000B0090C4F3D3
:104190000252022A05D058F8040B0021032A08D045
:1041A00008E008F1070020F00702F2E8020190465B
:1041B00003E080B2042A00D1C0B24FF00009220708
:1041C0002AD53278702A07D0DDF800C08CF0100CA8
:1041D0005CEA0B0C05D00EE040228DF80420012291
:1041E00008E050EA010306D030238DF804308DF842
:1041F000052002229146009B83F0080353EA0B033B
:104200000AD150EA010201D1620705D530228DF8AA
:1042100004204FF001097F1E3278582A04D039A2B9
:104220000C920CAA02920BE03BA2F9E75B46009AC3
:10423000FCF774FB0C9B9B5C029A521E029213705B
:1042400050EA0102F2D1029804A9081A00F1200BE9
:10425000600702D524F4803400E001275F4502DDC9
:10426000A7EB0B0000E0002000EB0B01009003988F
:104270004944401A0390E00306D453462146179A56
:10428000039800F0A9F90544002706E001A852466A
:10429000C05D179990476D1C7F1C4F45F6DBE0030E
:1042A0000CD553462146179A039800F095F905441A
:1042B00004E030205246179990476D1C0099481E23
:1042C00000900029F5DC08E0029802995246007837
:1042D000491C0291179990476D1CBBF10001ABF18D
:1042E000010BF1DC5BE100F065F90544761C3078E8
:1042F00000287FF40DAE19B02846BDE8F08F00000D
:1043000009280100303132333435363738396162AB
:10431000636465660000000030313233343536376F
:10432000383941424344454600000000600700D44C
:10433000062708F1070020F00700F0E80223804676
:1043400003F0004C5FEA0C0001D097A009E02005C3
:1043500001D596A005E0E00701D095A001E0AFF2FD
:104360004C001390307823F0004365280CD006DC15
:10437000452809D046281DD047287FD13BE0662834
:1043800018D067287AD136E00021112F01DB1120E7
:1043900000E0781CCDE9000104A90CA8FFF7E6FCB9
:1043A000DDE90D010C9A4FF0000B07F101091092A5
:1043B00000914EE04FF000400097CDE9011004A9B4
:1043C0000CA8FFF7D3FCDDE90D020C9B0F994FF011
:1043D000000B91461093009211B9791C00EB010972
:1043E000B7EB090003D4C0F1FF3B07F10109A9EBCA
:1043F0000700019042E0012F00DA01270021112F70
:1044000001DD112000E03846CDE9000104A90CA827
:10441000FFF7ACFCDDE90D010C9A00914FF0000BA9
:10442000B946109221070FD4009A4A4503DA914603
:1044300001E0A9F10109B9F1010F05DD109AA9F117
:104440000101515C3029F4D0B84202DA10F1040FB6
:1044500003DA0121CDE9011010E0002803DC8344D8
:10446000A9EB000102E0411C494500DD8946A0EBB3
:104470000B00401C01904FF000400290200705D433
:104480000198484502DB4FF0FF30019000208DF885
:104490004B0002980DF14B07B0F1004F25D00220E0
:1044A0000C902B200D90029800280CDA40420290CC
:1044B0002D200D9007E00A210298FCF719FA3031FF
:1044C000029007F8011D0C99481E0C900029F2DC9F
:1044D00002980028EFD1791E0D980870307800F00E
:1044E000200040F0450007F8020D11A8C01BC01DB8
:1044F00002901398007800B1012000EB09010198A7
:1045000001EBE071029801440398401A401E0390A9
:10451000E00306D453462146179A039800F05CF84E
:1045200005441398007818B15246179990476D1CAE
:10453000E00323D553462146179A039800F04CF820
:1045400005441BE0BBF1000F07DB0098584504DD74
:104550001098179910F80B0001E017993020524677
:10456000904701980BF1010B401E05F101050190E8
:1045700004D12E205246179990476D1CB9F10001C5
:10458000A9F10109DEDC05E017F8010B5246179985
:1045900090476D1C0299481E02900029F4DC534696
:1045A0002146179A03989EE62D0000002B0000007C
:1045B000200000002DE9F041044600251E46174664
:1045C000880404D405E039462020B0476D1C641EE1
:1045D000F9D52846BDE8F0812DE9F04104460025D3
:1045E0001E469046C80301D5302700E020278804E6
:1045F00004D505E041463846B0476D1C641EF9D528
:104600002846BDE8F0810A68531C0B6010707047A3
:1046100011B108B1884201D10020704782683AB1D7
:1046200052681AB111604A60806841600120704789
:1046300081600020C1E90001F8E72DE9F0410600A2
:104640000698984614460D4621D005B3FCB1A64203
:104650001DD018B1E06840F4007708E019462846FC
:1046600000F08EF9050012D0E06820F40077A089F0
:10467000800504D4206A10B1D8F804108847E76098
:10468000214630462562BDE8F041FFF7C1BF00205A
:10469000BDE8F08130B5044606480023026803E017
:1046A00012F8015B25705B1C8B42F9DB0260084647
:1046B00030BD0000F800002010B530B1036823B110
:1046C000D0E90121914201D204E0002010BD491C33
:1046D000816020B1914202D25C5C202CF7D99142DA
:1046E000F4D1491E816010BDF8B50C460546104650
:1046F000194600F02BF8064600200090064B324683
:1047000021462846FFF799FF0028304602D100F0E5
:1047100071F80020F8BD000018000020F8B505462B
:104720000C46104600F04EF8064600200090064B5E
:10473000324621462846FFF780FF0028304602D146
:1047400000F058F80020F8BD1800002070B50546AC
:104750000E46124800F079F804001CD00820E060F2
:10476000C4E906560E4A0F4B28463146FCF78CF832
:1047700002D86FF000400DE000220B4B2846314676
:10478000FCF76AF802D84FF0004003E028463146B3
:10479000FCF730F86061204670BD00001800002072
:1047A0000000C0FFFFFFDF410000E0C110B504487A
:1047B00000F04BF8002801D04021C16010BD00007E
:1047C0001800002070B50546094800F03EF80400C6
:1047D00007D01020E0600649284600F0D1F820619B
:1047E00008B1204670BD204600F004F8002070BDDE
:1047F000180000202DE9F04104460027104E1BE070
:10480000A0892568C0050BD4A06820B1FFF7F2FF8E
:10481000A089C00504D4206910B171688847276158
:10482000A089800504D4206A10B171688847276286
:104830007168204688472C46002CE1D1BDE8F08104
:1048400018000020002200F060BB10B5016828208D
:104850008847040002D02821FBF7E1FC204610BD68
:104860000022114600F06EB82DE9F04788B00F46DF
:1048700004469A4616461C216846FBF7D0FC2F4892
:104880000025002C0560456055D08146E7B3CDE991
:1048900000470295D9E90212D9F810000491CDE938
:1048A000052009F10800FFF7D0FF5FEA00082BD0D0
:1048B00000986F4608B1029808B100270BE00198F4
:1048C000042808D903221EA10098FBF7D1FC10B9D7
:1048D0000298C01C02903846FFF7EEFE01464046A3
:1048E00000F0BEFD68B1BAF1000F13D06846FFF7C3
:1048F000E3FEDDE90101814203D202990098405CA8
:1049000040B14046FFF776FFDDE9011088420AD248
:1049100005460BE01EB102990098084430604046FD
:1049200008B0BDE8F087081E00D0451E0EB1601922
:104930003060C9E900450020F2E7000010000020C7
:10494000EFBBBF0070B515460E46040009D0FBF75B
:1049500071FC411C2B4632462046BDE87040FFF7F3
:1049600083BF002070BD0000014A002100F0F6BDA9
:10497000180000200149496808470000180000207D
:1049800070B50E4605000DD0FBF754FC401C316895
:1049900004468847060005D022462946FBF726FC38
:1049A000304670BD002070BD70B50446082802D99D
:1049B0004FF0FF3070BD4FF4847000EB441005469B
:1049C0001021FFF7D1F82846FFF768F80028FAD140
:1049D0004FF4027000EB44101F21FFF7C5F80D499A
:1049E0000120A0404A8882434A808A8882438A8084
:1049F0000949002021F814000649891D08554FF483
:104A0000427000EB44142046FFF748F80028FAD122
:104A1000012070BD98000020F22A00202DE9F04707
:104A20009846894623F0004621F000470546144683
:104A300033463946FBF728FF02D22846394601E0C3
:104A4000204631466FF03302FBF79FFE06460F46C5
:104A50002246434628464946FBF791FE21F0004195
:104A600032463B46FBF7F8FE02D80120BDE8F0874E
:104A70000020FBE72DE9F04117460E4604460828C2
:104A800003D94FF0FF30BDE8F08160014FF001081D
:104A90000830FFF703F800F00F00012802D06FF094
:104AA0000400F0E74FF4427000EB44100546FEF7B7
:104AB000F5FF132802D06FF00200E4E73078717838
:104AC00001EB0020B17801EB0020F17801EB002030
:104AD000411C2CD058B36FB340F6084000EB441093
:104AE00004223146FFF770F841F20800390A00EB62
:104AF0004410FFF739F841F20810F9B200EB441006
:104B0000FFF732F84FF4847000EB4410064604219E
:104B1000FFF72AF83046FEF7C1FF0028FAD1164900
:104B200008FA04F0498808421AD00020ABE76FF079
:104B30000B00A8E76FF00A00A5E72046FEF7AEFFDE
:104B4000000706D520460821FFF70EF86FF00C008D
:104B500099E72846FEF7A2FF30B96FF0030092E70D
:104B60004FF4027000EB44142846FEF797FF172815
:104B7000E3D1012087E7000098000020F0B58DB058
:104B80000C46054601F01FFA86B2B01E4FF0FF3703
:104B90000C2865D2DFE800F0640664446464646451
:104BA0006464646208AA6969E8680292CDE9031046
:104BB00007AB0AA8CDE9000305A8031D421C09A9FB
:104BC000801CFEF7DAF801284DD109988DF8140001
:104BD00005AA0AA9284600F051F89DF81400E0B390
:104BE000012802D0022808D035E0BDF81800009056
:104BF00000230422A968286906E0BDF81800009087
:104C000000230522A9682869FEF7FFF9011E22DDAD
:104C10002246284601F098FB0446401C24D026E09A
:104C2000E868009001AA02A903A86B69FEF754F88E
:104C3000012810D1BDF80400009000230622A968C5
:104C40002869FEF7E2F9011E05DD2246284601F03B
:104C50007BFB04000BD03C4606E001E000202877F7
:104C6000284600F0B7F934460DB02046F0BD28467E
:104C700000F0B0F9002CF6D0F6E700002DE9FC4773
:104C80009146884606464FF0FF34002506EBC507DF
:104C9000796AD1B34046FEF72EF970BBD8E901100E
:104CA0000A187B6A20E000BF90F800C0BCF12F0F0B
:104CB0000AD02B290BD0232913D0614518D12B29D9
:104CC00005D023290DD00DE02F2911D10AE0411C78
:104CD00001E0811C401C914204D209782F29F8D1AF
:104CE00000E0501E401C5B1C197809B19042DBD3D8
:104CF00090420AD111F0FF0F07D1B86A28B1CDE96F
:104D00000098B96A6846884700246D1C052DBDDBF4
:104D1000601C07D1F06C28B1CDE90098F16C6846B1
:104D2000884700242046BDE8FC87000070B5044693
:104D3000082802D94FF0FF3070BD6001012508300E
:104D4000FEF7ACFE00F00F00012801D0A81F70BDD7
:104D50004FF4847000EB441006460821FEF704FF70
:104D60003046FEF79BFE0028FAD11248A540818804
:104D7000A9438180408805420CD0002070BD304698
:104D8000FEF78CFE00070DD52046FFF70DFE6FF0F5
:104D90000C0070BD4FF4027000EB44164FF44270EB
:104DA00000EB44152846FEF779FE0028E7D10120E4
:104DB00070BD0000980000202DE9F04104001CD0D7
:104DC0002268D2B1636813B1A068984215D24FF03F
:104DD0000046B14211D2A568491C6818834202D32B
:104DE0005019BDE8F081216939B9B0F1804F06D37F
:104DF000B04202D26FF0004702E00020F1E7470026
:104E0000236A00262BB1394610469847050012D078
:104E10000CE0A1693846884705000CD0A2682168DB
:104E2000521CFBF7E3F9E16920688847C4E90057A1
:104E3000A0682844D5E7E169206888476660266055
:104E4000DBE7000013B54FF47A730122694602488C
:104E5000FDF7AFFC00981CBD680100200168A1F5BA
:104E60007F42FF3A03D0491C016008467047012188
:104E7000FAE72DE9F04142F2086101EB401542F2F8
:104E80000871002601EB40142846FEF707FE07468E
:104E90002046FEF703FE00EB072007043F0C09D075
:104EA0002846FEF7FBFD06462046FEF7F7FD00EB21
:104EB000062086B2BE42E7D13046BDE8F0812DE93A
:104EC000F04142F2080101EB401542F208110026C0
:104ED00001EB40142846FEF7E1FD07462046FEF7A9
:104EE000DDFD00EB072007043F0C09D02846FEF744
:104EF000D5FD06462046FEF7D1FD00EB062086B222
:104F0000BE42E7D13046BDE8F0812DE9F041884648
:104F1000A8B3B8F1000F33D084680AB90AE0246856
:104F20006CB3216A59B34046FBF78BF90028F6D1E0
:104F300020E024681CB3266A5FEA0805F9D0002E39
:104F4000F7D0B54218D002E098B16D1C761C2878D5
:104F5000FBF746F907463078FBF742F98742287895
:104F6000F2D0FBF73DF905463078FBF739F9854279
:104F7000DFD124B1206A10B12046BDE8F081FFE7FF
:104F80000020FAE72DE9F0410B3020F00706104D24
:104F900019E02068B04215D3B0420AD9871B201D02
:104FA000D4F80480FBF722F9A019C0E90078286042
:104FB00004E060682860201DFBF718F9201D2660BA
:104FC000BDE8F081251D2C68002CE2D10020F7E718
:104FD000080100207CB5044680694FF0FF3538B1E8
:104FE00004F15400FEF700FCD0B1207F10B117E0AF
:104FF000002515E06846FEF7F3FB4FF47A7168462A
:10500000FEF7E6FBA1682069FEF7EBF8011E07DD5D
:105010006A46204601F098F9050001D10120207769
:1050200028467CBDFCF7A4FBFEF796FBFEF726FAAC
:10503000FEF79AFAFEF776FAFEF7B2FAFCF718F9DD
:10504000FEE72DE9F04107460025C8680C462E46CC
:10505000B0F57A7F5BD2401CE0602168A068095CF3
:105060005B2954D1401CA0602046FFF725FB4CB1C2
:10507000D4E90110884203D22268125C5D2A33D041
:10508000884203D3A068401EA06040E0401E04F1A7
:105090001008A0604046FFF7D8FB98B30DB330600E
:1050A00046600646A068401CA0602046FFF704FB4F
:1050B0002146304600F0D4F930B32046FFF7FCFA21
:1050C00014B3D4E90110884203D22168095C2C2969
:1050D000E0D06268904217D22168085C5D2813D145
:1050E00002E005462E46DDE7E068401EE06005B1BF
:1050F0006E602020C7E90250A068401CA06001201B
:10510000BDE8F081FFE715B12846FFF773FB0020EB
:10511000F6E7034610B500200246995CA1F1300481
:10512000092C01D830380AE0A1F14104052C01D83E
:10513000373804E0A1F16104052C08D85738084439
:10514000032A00D20001521C042AE6D310BD00201D
:1051500010BD00002DE9F04192B04FF00005064669
:105160000C004FF02E03284610953CD02168D1B397
:105170006A4627E027683944415C34291BD00ADCA1
:10518000A1F12B07092F23D2DFE807F0152215170D
:1051900022151515150038290DD006DC35290AD041
:1051A000362908D0372913D105E0392903D04529FC
:1051B00001D065290CD1115400E01354401C3F2844
:1051C00006D22CB1A168D4F804C00F186745D1D31A
:1051D0001554904610A9104601F06EF90F4610992B
:1051E0000546884503D1002012B0BDE8F081C6E92C
:1051F0000657114A114B28463946FBF745FB02D8A2
:105200006FF000400DE000220D4B28463946FBF7B9
:1052100023FB02D84FF0004003E028463946FBF755
:10522000E9FA70610820F060109AA168A2EB08000A
:105230000844A0600120D7E70000C0FFFFFFDF4166
:105240000000E0C12DE9F04107460026C8680C4681
:105250003546B0F57A7F7BD2401CE060002C77D0D9
:10526000D4E90110884273D22168095C7B296FD18F
:10527000401CA0602046FFF71FFAD4E901108842C5
:1052800003D22268125C7D2A4FD08842A0F101002F
:10529000A0605DD204F110084046FFF7D6FAE8B3EB
:1052A0000EB3286045600546CCB3D4E90110401C1C
:1052B00088424AD2A0602046FFF7FEF921462846E0
:1052C00000F048F858B32046FFF7F6F9286928623D
:1052D00000202861D4E90110884236D22168095C97
:1052E0003A2932D102E006463546DDE7401CA0608F
:1052F0002046FFF7E1F92146284600F0B1F870B1E9
:105300002046FFF7D9F9D4E90110884203D2216879
:10531000095C2C29C0D06268904201E014E014E0DE
:1053200013D22168085C7D280FD1E068401EE06040
:1053300006B175604020C7E90260A068401CA0600B
:105340000120BDE8F08103E016B13046FFF752FAC4
:105350000020F6E72DE9F84380468B6808684FF097
:105360000009C418CDF8009008680E46651CC15CA1
:10537000641C22296ED10022716808E0BCF15C0F28
:1053800004D17F1C8F4265D2521C641C641C271AF6
:105390008F4204D294F800C0BCF1220FEED1271A3C
:1053A0008F4257D22178222954D11844201A801ACA
:1053B0003169401C884707004CD0009737E02978B6
:1053C0005C2905D000986D1C00F8011B00902EE0B0
:1053D0000220611B012939DB6A78662A14D008DCB7
:1053E000222A12D02F2A10D05C2A0ED0622A2DD168
:1053F00008E06E2A0ED0722A0ED0742A0ED0752ABA
:1054000024D10DE0082200E00C22009901F8012BC4
:1054100000910BE00A22F8E70D22F6E70922F4E7F3
:105420006A462146284601F0CDF878B10544A542E8
:10543000C5D3009981F800901021C8E9031730689E
:10544000201A401CB0600120BDE8F88317B17169D3
:105450003846884715B13068281AB0600020F3E755
:1054600070B50C0005465ED0206800285BD0A168AE
:1054700063680A1D9A4205D80844042231A1FAF74C
:10548000F7FE78B3A0686268411D0126914206D8F4
:105490002168052208442DA1FAF7EAFE28B3A06886
:1054A0006268011D914206D821680422084429A19E
:1054B000FAF7DEFEE8B1D4E90101814203D22268A5
:1054C000525C222A1DD0814221D22268525C2D2AB0
:1054D00002D0303A092A1AD821462846BDE8704041
:1054E000FFF738BE0420E86006E0EE60A068401DCB
:1054F00004E002206E61E860A068001DA060012049
:1055000070BD21462846BDE87040FFF723BF8142A9
:1055100003D22268525C5B2A07D0814203D2206802
:10552000405C7B2807D0002070BD21462846BDE89E
:105530007040FFF786BD21462846BDE87040FFF762
:1055400081BE00006E756C6C0000000066616C73BB
:10555000650000007472756500000000F0B589B048
:105560000E460746144624216846FAF758FE4FF4C3
:1055700080752168284688470596CDE9000594E89E
:10558000070006AB83E80700009890B369463846E9
:1055900000F02CFA002638B3684600F0D3FFA2686A
:1055A0004AB102990098491C904705001CD0284632
:1055B000009609B0F0BD02982168401C884705009C
:1055C00012D0DDE90110401C814201D20A4601E0FF
:1055D000029A521C28460099FAF708FE02982E54A7
:1055E000616800988847E2E7009810B161688847D1
:1055F00000960020DDE72DE9F04185680C000FD012
:1056000001212046FFF7D8FB00280AD05B2101705A
:10561000A068401CA060E068401C0026E06025E017
:105620000020BDE8F0812146284600F0DFF900287F
:10563000F7D0204600F086FF2868B0B1606908B155
:10564000022700E00127791C2046FFF7B5FB002860
:10565000E7D02C2100F8011B616911B1202100F86D
:10566000011B0670A0683844A0602D68002DDAD1B7
:1056700002212046FFF7A0FB0028D2D05D21017057
:105680004670E068401EE0600120CAE72DE9F0475F
:1056900006468AB0D6E90654884600271C2168468B
:1056A000FAF7BDFD0020CDE908004FF02E09B8F152
:1056B000000F42D00DB1012000E0002020432E4910
:1056C00020F00040081AC00F4FF0000A12D1480025
:1056D000B0EB440F00D16DB17069FBF76DF82A464D
:1056E0002346FBF7B9F80AD124A168467269FEF790
:1056F000B3FA1FE022A16846FEF7AEFA1AE02A4686
:10570000234621A16846FEF7A7FA064608AA20A16B
:105710006846FAF7C7FD012806D1DDE908012A46E7
:105720002346FFF77BF930B92A46234619A168467C
:10573000FEF792FA06461A2E03D300200AB0BDE8FF
:10574000F087711C4046FFF737FB0028F6D069460A
:105750002E2306E0CA5D4A4501D1C35500E0C2557B
:105760007F1CB742F6D300F807A0D8F808008119CB
:105770000120C8F80810E1E70000F07F2564000070
:105780006E756C6C0000000025312E31356700000D
:10579000256C670025312E31376700002DE9F04771
:1057A00085680C0003D0606920B1022603E0002068
:1057B000BDE8F0870126711C2046FFF7FDFA00289E
:1057C000F6D07B2100F8011BE168491CE1606169AA
:1057D0000A2701B10770A0684FF00008304409267D
:1057E000A06059E088B12046E168FFF7E5FA00289B
:1057F000DED0002103E000BF00F8016B491CE26825
:105800008A42F9D8A0681044A0602146286A00F0B6
:1058100065F80028CCD0204600F094FE606908B1FD
:10582000022000E00120814601462046FFF7C4FA2D
:105830000028BDD03A2100F8011B616901B1067052
:10584000A16801EB0900A0602146284600F0CEF8CF
:105850000028ADD0204600F075FE606900B101203F
:10586000296801B1012100EB010909F1010120467C
:10587000FFF7A2FA00289BD0296811B12C2100F86B
:10588000011B616909B100F8017B80F80080A16803
:1058900001EB0900A0602D686069002DA2D110B154
:1058A000E168491C00E002212046FFF785FA002844
:1058B00086D0616949B1002103E000BF00F8016BA7
:1058C000491CE268521E8A42F8D87D21017080F896
:1058D0000180E068401EE060012069E72DE9F047A3
:1058E0000A0005464FF0000601D01DB120E000205F
:1058F000BDE8F08703211046FFF75EFA0028F7D0D5
:1059000037A1FAF7ACFC5AE00C2927D006DC0829AD
:1059100024D0092922D00A2906D11FE00D291DD043
:1059200022291BD05C2919D0202900D2761D401CC9
:1059300001780029E8D1401B8719F91C1046FFF7B0
:105940003BFA041ED4D04FF022084FF0000984F82F
:1059500000802EB1661C4FF05C0A28E0761CE6E75A
:105960003A462946601CFAF741FC23E01F2803D978
:10597000222801D05C2830D106F801AB2A785046A5
:105980000C2A23D006DC082A1ED0092A24D00A2A91
:1059900006D11DE00D2A1DD0222A12D05C2A1CD06F
:1059A00010A13046FEF758F9361D6D1C761C28787C
:1059B0000028DBD1E01980F8018080F802900120F6
:1059C00096E786F80080F0E7622006E0662004E0B3
:1059D0006E2002E0722000E074203070E5E70000E5
:1059E00022220000752530347800000070B50400D4
:1059F0000E4613D096B1207B102843D008DC012836
:105A000016D002281ED004280AD0082806D121E08A
:105A100020283CD040283FD0802820D0002070BDD6
:105A200005213046FFF7C8F90028F8D01DA106E08F
:105A300006213046FFF7C0F90028F0D01BA1FAF785
:105A40000EFC1DE005213046FFF7B6F90028E6D030
:105A500018A1F4E72046BDE87040FFF717BE2069A3
:105A60000028DCD0FAF7E6FB401C0546014630462C
:105A7000FFF7A2F90028D2D02A462169FAF7B6FB2F
:105A8000012070BD2069BDE87040FFF727BF2046A8
:105A9000BDE87040FFF7AFBD2046BDE87040FFF79E
:105AA0007DBE00006E756C6C0000000066616C735A
:105AB0006500000074727565000000002DE9F0417A
:105AC0001E4C0F460546E6682068001D00F0E3FD09
:105AD00038B9206890F82C10012088402169814352
